:020000040000FA
:1000000090050020D5000000FB000000FD0000006E
:1000100000000000000000000000000000000000E0
:10002000000000000000000000000000FF000000D1
:1000300000000000000000000101000003010000BA
:100040000501000005010000050100000501000098
:100050000501000005010000050100000501000088
:10006000550D00000501000005010000050100001C
:10007000C10D0000050100000501000005010000A0
:100080000501000005010000050100000501000058
:100090000501000005010000050100000501000048
:1000A0000501000005010000050100000501000038
:1000B0000501000005010000050100000501000028
:1000C0000348854600F052FA004800474D1A0000E8
:1000D000900500200C480D4901600D4901600D4953
:1000E00001600D4A0D4911600D4A0E491160002151
:1000F00001600D4880470D480047FEE7FEE7FEE738
:10010000FEE7FEE7FEE70000000100505900000096
:10011000160000008800000024000050A55A0000CE
:10012000800300501F000000550C0000C1000000BB
:1001300030B50B46014600202022012409E00D467F
:10014000D5409D4205D31D469540491B2546954007
:1001500040191546521E002DF1DC30BD03460B43FD
:100160009B0703D009E008C9121F08C0042AFAD26D
:1001700003E00B780370401C491C521EF9D27047F3
:10018000F0B51FB40646002082B005464024019118
:1001900000901BE0019922460F46304600F008FA15
:1001A000049A059B801A994110D31046194622469D
:1001B00000F0EEF9361A8F41019722460120002106
:1001C000009F00F0E5F938184D4100902046641E6C
:1001D0000028DFDC019B00982946324607B0F0BDBD
:1001E000F0B507460846584087B0C00F0490480055
:1001F0000E46590040084908BC1A884105D23846C5
:1002000031461E4617460B4602465800400810432A
:100210004CD0300D039040055900400D490D05901C
:10022000401A0290402872DA18030121000B0905D8
:100230000843019004980092002805D00199524289
:100240000020884100920190029840210A1A0199E9
:10025000009800F09DF905460C466B4607CB00F070
:10026000B8F9C0197141039A0E0D0023D7175640F3
:100270001A467A40164344D0049A002A2DD0029A96
:10028000012A039A15DC1205C01A91410126360590
:10029000001C7141D20F059ED20700930192029675
:1002A0002A46234600F0B5F907B0F0BD384631467E
:1002B000FAE71605224A0F46B218C01AB7410121C3
:1002C0000905001C4F4100187F411146181879415B
:1002D000E20F10436D19644113E0E2076D08154306
:1002E0006408C2071443039A01261205C01A9141FB
:1002F0003605001C7141CE07400830434908C0183C
:1003000051412A46234600F077F9CDE7FFE70498EC
:1003100001224000C117121A00238B410498314674
:10032000C417381AA141EEE730B40124E407634052
:1003300030BC55E730B40124E407614030BC4FE7DE
:100340000000E0FFF0B51FB488B00B9909980024B5
:1003500048400999C00F490049080991C0070B9905
:100360000090490049080B9109990898A64608434E
:100370001CD00B990A98084318D009980124400012
:10038000420D4800410D099824050003000B20434D
:1003900009900B980003000B20430B9050181C4948
:1003A0004018002201901446104605E00020014646
:1003B0000DB0F0BD032801DA034600E003239C469C
:1003C000C11A0AAE0AE05F0008ADED5B4F00F75BB3
:1003D0007D430027AA187C41491C5B1E6145F2DD64
:1003E000410004AB5A522104120C0A43240C401C55
:1003F0000828DFDB01980290009970460191009077
:10040000059B049A0799069800F003F9D0E70000CD
:100410000DFCFFFFF0B50C465C4085B0E40FE4072F
:1004200003944C000026640859009446490802468B
:100430000296224321D062460A431ED06200570D25
:100440004A000E032303550D012402462C492405BE
:10045000781B1B0B360B4018234326436146009044
:100460001C46501AB44103D30098401C009002E08F
:10047000921800985B41002803DA0020014605B07D
:10048000F0BD0020012109050746864611E06446BB
:100490001D46141BB54106D36546521BB341744635
:1004A00007430C43A646CD07400849082843921845
:1004B0005B4105460D43EAD11046184313D0604610
:1004C000194650407140084306D06046101AB341A7
:1004D00006D20122002306E000220123DB0702E00E
:1004E0000122D2435310009874460105381C614123
:1004F000029C039D0019694100F07EF8BFE70000EF
:10050000FD0300004A0009030123090B1B051943E1
:100510000A4B10B5520D9A4202DA0020014610BD76
:10052000064B34339A4203DC9A1A00F041F810BDAE
:10053000034BD21800F02CF810BD0000FF030000A0
:10054000CDFBFFFF10B5002904DB0124E407404286
:100550008C412146002B04DB1C460123DB07524261
:10056000A341994200D1904210BD0000064C0125E4
:10057000064E05E0E36807CC2B430C3C984710344B
:10058000B442F7D3FFF7A0FD501D0000701D00001E
:1005900010B5202A04DB0146203A9140002010BD0E
:1005A000914020239C1A0346E3401943904010BD1C
:1005B00010B5202A04DB0846203AD040002110BDA7
:1005C0000B46D340D0402024A21A9140084319463C
:1005D00010BD10B5202A06DBCB170846203A104183
:1005E000C1170B4306E00B461341D0402024A21A4A
:1005F00091400843194610BD10B5002B08DA0024BD
:10060000401C614192185B411A4301D140084000EF
:1006100010BDF0B51FB482B005460C0003D00846EB
:1006200000F008FD02E000F005FD203002460090D9
:1006300021462846FFF7ACFF049B059A04460F4667
:1006400018431143084314D0184610431BD0009898
:1006500040210A1A18460599FFF7AAFF05460E46DB
:10066000009A05990498FFF793FF084305D00120ED
:1006700004E02046394607B0F0BD0020C11705430D
:100680000E432C43374300990E986305401A7905B1
:10069000E40A00220C43FD0A0A3002D5002001467C
:1006A000E9E70105101969410C9C0D9D001969418C
:1006B000FFF7A2FFDFE70000C10F8900064A891893
:1006C0008968C306DB0E01229A401143C20F9200D3
:1006D000014BD2189160704700020050F3B583B00F
:1006E0000C460398002809D13D48006A0121C9043D
:1006F00088433B4908623B48029008E03848006A5A
:100700000121C90408433649086237480290374836
:10071000844204D84010844201D9002722E03448A2
:10072000844205D84010844202D90127640019E0B0
:100730003048844205D84010844202D30327A400E5
:1007400010E00398002803D12B482549086202E0F5
:100750002A4823490862042000F08EF900F0DAF8F4
:1007600005B0F0BD26492046FFF7E2FC06462449C5
:100770000298FFF7DDFC05460EE0E807C00F0028F1
:1007800007D1F007C00F002803D1022D01D0022E9F
:1007900000D102E06D087608EFE700BFB803A91E9C
:1007A00049020843B11E084301900D48006A010C3C
:1007B0000904019801430A480162006A05210904FD
:1007C000884307490862042000F056F97A1C6A43FE
:1007D0001146029A72431046FFF7AAFCC0E70000D8
:1007E00000020050001BB7000080510100C2EB0B5B
:1007F00000E1F50580F0FA022EC200006FD600007D
:1008000040420F00024909680143014A11607047E4
:1008100000020050FEB5002002901AA0006800906F
:100820001948046A00132040002801D00020FEBDB2
:100830000120C0042040002801D0144D00E0144DD8
:10084000012040042040002801D02846EFE7032083
:1008500080032040800B69460A5C0192E005C00DD0
:10086000861C1F2040022040400A871C019A7A43C0
:100870001146AA0872431046FFF75AFC8000029006
:100880000298D4E7010202040002005000805101E6
:10089000001BB700FEB5002002901AA0006800906F
:1008A0001948046A00132040002801D00020FEBD32
:1008B0000120C0042040002801D0144D00E0144D58
:1008C000012040042040002801D02846EFE7032003
:1008D00080032040800B69460A5C0192E005C00D50
:1008E000861C1F2040022040400A871C019A7A4340
:1008F0001146AA0872431046FFF71AFC80000290C6
:100900000298D4E701020204000200500080510165
:10091000001BB700FEB5002002901AA000680090EE
:100920001948046A00132040002801D00020FEBDB1
:100930000120C0042040002801D0144D00E0144DD7
:10094000012040042040002801D02846EFE7032082
:1009500080032040800B69460A5C0192E005C00DCF
:10096000861C1F2040022040400A871C019A7A43BF
:100970001146AA0872431046FFF7DAFB8000029086
:100980000298D4E7010202040002005000805101E5
:10099000001BB70010B504461048844201D9044634
:1009A00003E00F48844200D204460E480068C007A6
:1009B000C00F002805D021460020FFF78FFE044617
:1009C00005E021460120C004FFF788FE044600210F
:1009D000022000F009F8204610BD000080F0FA0265
:1009E00040787D010002005070B504460D4608486D
:1009F0000069C008C00020430549086108468069B5
:100A0000000900012843886100F0F2F870BD000081
:100A100000020050F0B50B46002100240025C6005E
:100A2000360F002E0FD04600B60FB600114FF41946
:100A30002168C600370FC601F60EB7400E46BE430A
:100A40001E43314621608603360E002E10D0060369
:100A5000B60FB600074F0837F51929688603360E1A
:100A6000F6438705FF0EBE400E401643314629600F
:100A7000F0BD0000100200500146074A05E0104694
:100A8000521E002801DC002070470448C06808405E
:100A90008842F4D10120F7E790D003000002005013
:100AA00070B5034600200FE0012484400C40002C68
:100AB00009D01C6846000325B540AC4346001546E6
:100AC000B5402C431C60401C0828EDD370BD0000CD
:100AD000C206D20E01219140014A11607047000008
:100AE00000E100E030B50146F0240C4022110B0774
:100AF0001B0F5401024D64199D00601930BD0000A8
:100B00000042005010B50420FFF77CFE1020FFF7D4
:100B1000B3FF00210720FFF767FF0120FFF772FEF8
:100B20000120FFF7A9FF2048FFF734FF1F48FFF718
:100B3000C3FD1E48401CFFF7BFFD1D48FFF7BCFD6D
:100B4000002211461948FFF765FF00221146174899
:100B5000401CFFF75FFF002211461548FFF75AFFC0
:100B600005200007C06B1349084005210907C86329
:100B70000846C06B0321084305210907C8630846DE
:100B8000006B0D4908400521090708630846006B02
:100B90000849C943084305210907086301220421C4
:100BA0000648FFF77DFF10BD80F0FA02103D802758
:100BB0000200802EFCFCFFFFFCFCFFFC40400050CC
:100BC000010E05221207891889680122824011430B
:100BD000020E05231B07D2189160010E1A468918D0
:100BE0008A68012181408A43010EC9188A607047D2
:100BF00070B51248006945076D0FFFF70BFE1049ED
:100C00000860022D03D0A8000E490C5801E00C48E2
:100C100004680A4880690007000F461C31462046D8
:100C2000FFF786FA084908600849074800684A1033
:100C30008018FFF77DFA0649086070BD0002005079
:100C400008000020E01C00000000002040420F00CF
:100C5000040000207047000030B589B0054620220E
:100C6000194901A8FFF77AFA1848854206D11848B1
:100C70004069072109020840040A1AE0134820309D
:100C8000854206D112484069072109030840040B38
:100C90000FE01048854206D10D484069072109043C
:100CA0000840040C05E00A4840690721090508408E
:100CB000040D022C03D10848006809B030BDA00023
:100CC00001A90858F9E70000301D000000000140AC
:100CD000000200500000114000000020FEB5054653
:100CE0000F4616462846FFF7B7FF0446002001903E
:100CF00000906008B04202D2022001901BE0012067
:100D00008006844203D307200090E4080EE001200F
:100D10004006844203D303200090A40806E001208B
:100D20000006844202D30120009064083146204628
:100D3000FFF7FEF901900098384328600198686039
:100D4000009A521C0198504301462046FFF7F0F9E3
:100D5000FEBD000000BF08488068C007C00F002823
:100D600009D000BF01200449886000BF0348006823
:100D7000401C024908607047000001401400002038
:100D800010B5044622460121C9060C48FFF7A6FF0C
:100D900000BF0A4800680121490708430749086065
:100DA00000BF00BF08460068890308430349086084
:100DB00000BF0820FFF78CFE10BD000000000140BE
:100DC00010B500F0E3F810BD10B504460348FFF776
:100DD000F7FE2146024800F021F810BD1000000483
:100DE0000000054010B504460348FFF7E9FE214620
:100DF000024800F013F810BD110000040000154077
:100E000010B50548406811210843034948600C208B
:100E1000FFF75EFE10BD000000000540F0B587B092
:100E200004460D46274801460EC9C06803AE0EC6EB
:100E300006900020029024484069032109060840DA
:100E4000060E214880690F2109020840070A002088
:100E500020630320E060A0681C490840A060012EC8
:100E600004D1FFF717FDB10003AA5050002D26D082
:100E7000B10003AA5058791CFFF75AF969084018C5
:100E800029460190FFF754F9801E029010490298FC
:100E900088420FD9B10003AA5058791CFFF748F9CE
:100EA000E900401829460190FFF742F90009801E29
:100EB000606204E00321090702980843606207B0FA
:100EC000F0BD0000001D0000000200500FFFF0FF09
:100ED000FFFF0000FFB587B004460D4617462848BF
:100EE00001460EC9C06802AE0EC6059000200190F2
:100EF00024484069032109060840060E21488069FC
:100F00000F2109020840000A0690012E04D1FFF7C4
:100F1000C1FCB10002AA5050002D28D0B10002AA95
:100F200050580699491CFFF703F9690840182946EB
:100F30000090FFF7FDF8801E019013490198884248
:100F400010D9B10002AA50580699491CFFF7F0F8D1
:100F5000E900401829460090FFF7EAF80009801ED2
:100F6000606204E003210907019808436062384683
:100F70000A99084310990843E0600BB0F0BD0000E7
:100F8000101D000000020050FFFF000070B5FF249C
:100F90001948C5698015284000282BD024E0164840
:100FA0000068C4B2224615A1134800F083FE302C1D
:100FB00002D100201249086012480068FF2813D8A7
:100FC000114812490968445410480068FF2801D1AB
:100FD000002002E00D480068401C0C4908600948E8
:100FE0000068401C074908600348C069C007C00F7B
:100FF0000028D4D170BD000000000540256320000A
:1010000024000020180000203000002020000020D4
:1010100037B514460846064B6A46214600F0EAF802
:1010200004466946002000F081FC20463EBD0000D9
:101030002D1900002021020C01D010211046020AB7
:1010400001D010460839020901D01046091F820854
:1010500001D01046891E420801D0881E7047081A28
:10106000704730B47446641E2578641CAB4204D3C8
:10107000635D5B00E31830BC18471D46F8E702E0EB
:1010800008C8121F08C1002AFAD170477047002013
:1010900001E001C1121F002AFBD17047F0B51FB457
:1010A00084B007980699020D014314D04A484B4971
:1010B0001018484305140F9801280E981CD0281AC0
:1010C000401C0024464E474900940191029000289C
:1010D00014DA474227E00F98012443A3012808D0DF
:1010E000002104980F9A84600360C260416009B0D7
:1010F000F0BD0E98C143F4E74042E2E7074612E034
:10110000F80707D02246334601990098FFF71AF9ED
:10111000019100902246334610461946FFF712F916
:1011200004460E467F10002FEAD10298019B00284A
:10113000009A0799069802DAFFF704F901E0FFF731
:1011400069F904460E460022284BFFF7FBF903D845
:101150000020C043014607E00022254B20463146CF
:10116000FFF73EF8FFF7CEF9102409E0002C0ADB68
:101170000A220023FFF704F8059B30321A55641E3B
:1011800002460A43F2D11122641C059B121B1C1952
:101190000F9B012B03D0012308430ED10AE0084323
:1011A00004D011200E9000200F9084E70E98151A9D
:1011B0006D1E0BE00E98824202DD00236D1C03E0E1
:1011C000824201DA00236D1E002BEED004980F99A5
:1011D0008260C16030C08AE701FCFFFF104D000053
:1011E000000024400000F03F300000000000F04309
:1011F0000000E03FFFB597B00646002518E225281D
:1012000077D100242746FD49049400E00443761C6E
:1012100032780120203A90400842F7D130782A28CD
:101220000ED00222307801463039092916D80499A7
:101230000A235943303940181443761C0490F1E7CF
:10124000189802C804911890002904DA012040037C
:1012500004434842049002200443761C30782E2830
:1012600014D1042004437078761C2A2809D11898D8
:10127000761C80C8189009E00A214F43303FC719F7
:10128000761C3078014630390929F5D930786C2838
:1012900010D006DC4C281AD068280ED06A2817D146
:1012A00004E0742813D07A2812D110E00120400500
:1012B00004430CE00121090501E0032109050C4369
:1012C0007178814203D1012000052418761C761C18
:1012D0003078119066280BD013DC58287DD009DCBB
:1012E00000287BD04528F6D04628F4D047281AD1CC
:1012F000A5E118E0632835D0642870D0652812D1A4
:101300009DE170286CD008DC6728F1D069287BD07B
:101310006E280DD06F2806D1BAE073282ED075281C
:1013200071D0782859D01A9A199990476D1C7EE18E
:101330006002400F022809D003280DD00428189815
:1013400001680DD00D60001D189070E11898EA1723
:1013500001680D604A60F6E7189801680D80F2E7B1
:101360000D70F0E718986A4601781172001D189008
:101370000020507202A80090012005E0189802C8D1
:10138000189000200091C04361070DD5002101E0B5
:101390000199491C0191B94212DA8142F8DB009AA5
:1013A000515C0029F4D10BE0002101E00199491CB6
:1013B00001918142FADB019A0099895C0029F5D1FB
:1013C000019904981A9B471A21463846199A00F049
:1013D00097FA0199401945180BE04FE02CE113E012
:1013E0004EE0009800990078491C00911A9A1999CA
:1013F00090470198401E0190401CF2D1214638468A
:101400001A9B199A10E137E00A20002100900191FF
:101410006002410F022907D0189A01CA1892C21718
:101420009446032908D00AE01898C01DC108C900D5
:1014300005C91891944607E000B2C21794460429E2
:1014400002D140B2C1178C4600226146944506DAAB
:101450000A460021404291418C462D2102E021059F
:1014600004D52B216A461173012103E0E10701D065
:101470002021F7E7029155E00A200AE0102008E059
:10148000102000900021042004430191082703E06C
:1014900008200021019100906002410F022907D02D
:1014A000189A01CA189200229446032908D008E02D
:1014B0001898C01DC108C90005C91891944603E0D9
:1014C00080B2042900D1C0B200210291210729D5A0
:1014D0001199702906D0009A1021019B4A401A43A5
:1014E00005D00EE040216A461173012108E06146F3
:1014F000014306D030216A461173119951730221BC
:101500000291009A0821019B4A401A430AD1614680
:10151000014301D1610705D530216A4611730121CC
:101520007F1E02911199582904D035A10E910DA961
:101530000D910DE037A1F9E76146019B009AFEF796
:101540001FFE0E9B8C469B5C0D9A521E0D921370D3
:1015500061460143F0D10D9805A9081A2030019089
:10156000600703D501200004844300E001270198AF
:10157000874201DD381A00E00020019900904118EF
:10158000029809180498401A0490E00306D42146F2
:101590001A9B199A049800F0B3F94519002706E040
:1015A00003A81A9AC05D199990476D1C7F1C029878
:1015B0008742F5DBE0030CD521461A9B199A049863
:1015C00000F09EF9451904E01A9A302019999047C5
:1015D0006D1C0099481E00900029F5DC08E00D986C
:1015E0000D990078491C0D911A9A199990476D1C14
:1015F0000199481E01900029F1DC63E109280100EE
:101600003031323334353637383961626364656678
:10161000000000003031323334353637383941423A
:10162000434445460000000000F05AF94519761C75
:101630003078002800D0E2E528461BB0F0BD6007F6
:1016400000D406271898C01DC108C90048680A6858
:101650000831C30FDB071891190001D09CA108E0E5
:10166000210501D59BA104E0E10701D09AA100E08A
:101670009AA1430011985B08109165280CD006DCF4
:10168000452809D046281DD0472841D141E0662889
:1016900018D067283CD13CE00021112F01DB11203C
:1016A00000E0781C0191009008A911A8FFF7F6FC52
:1016B000139905910021119A15927F1C1298019798
:1016C000009150E00120C00703900120019008A97B
:1016D000009711A8FFF7E2FC139A149905920022D3
:1016E000119B009212981593059A0192002901D03E
:1016F000104602E0791C40180190381A01D5019873
:1017000004E04042401E0090781C0190C01B0290F3
:1017100043E0012F00DA01270021112F01DD112004
:1017200000E038460191009008A911A8FFF7B6FC27
:1017300013990591119A0021129815920091019721
:1017400021070CD40599B94201DB019900E0019110
:10175000012904DD159A491E515C302906D0B84292
:1017600001DA011D05DA0121029115E00199491EF6
:10177000EDE7002805DC0099411800910199091A4C
:1017800003E0019A411C914200DD01910099401A49
:10179000401C02900120C0070390200706D4029944
:1017A0000198814202DB0020C0430290002069467C
:1017B000C87707AF012103980337C907884224D0AF
:1017C000022011902B201290039800280CDA40423E
:1017D00003902D20129007E00A210398FEF7A8FC41
:1017E00030317F1E039039701199481E11900029E5
:1017F000F2DC03980028EFD1791E12980870307837
:10180000202108404530BF1E387006A8C01BC01DEF
:10181000039010980078002800D001200199411809
:101820000298C0170918039809180498401A401E16
:101830000490E00306D421461A9B199A049800F0FC
:101840005FF8451910980078002803D01A9A199962
:1018500090476D1CE00324D521461A9B199A0498E1
:1018600000F04EF845191CE00098002807DB0099AD
:101870000598884203DD1598405C199901E0199993
:1018800030201A9A904700986D1C401C00900298D6
:10189000401E0290002804D11A9A2E2019999047D0
:1018A0006D1C0199481E01900029DDDC05E03878A7
:1018B0001A9A7F1C199990476D1C0399481E039032
:1018C0000029F4DC21461A9B199A0498ACE6000022
:1018D0002D0000002B000000200000000000000090
:1018E000F8B5044600251E461746880404D405E0D2
:1018F00039462020B0476D1C641EF9D52846F8BD36
:10190000FFB50446002581B01E46C80301D5302727
:1019100000E02027880404D505E038460399B04745
:101920006D1C641EF9D5284605B0F0BD0A68531C2D
:101930000B6010707047000001460A4A12684A4363
:10194000094B5A6100229A6105221A6100BF00BF4B
:10195000054A126901231B041A40002AF8D000BF6F
:10196000704700000400002000E000E0012015495D
:101970000968086000BF00BF00BF00BF00BF00BF14
:1019800000BF00BF00BF00BF00200E49096808600B
:1019900000BF00BF00BF00BF00BF00BF00BF00BF4F
:1019A00000BF00BF00BF00BF00BF00BF00BF00BF3F
:1019B00000BF00BF00BF00BF00BF00BF00BF00BF2F
:1019C000704700002C0000200120194909680860B8
:1019D00000BF00BF00BF00BF00BF00BF00BF00BF0F
:1019E00000BF00BF00BF00BF00BF00BF00BF00BFFF
:1019F00000BF00BF00BF00BF00BF00BF00BF00BFEF
:101A000000BF00BF00BF00BF00200949096808608F
:101A100000BF00BF00BF00BF00BF00BF00BF00BFCE
:101A200000BF00BF00BF00BF00BF00BF7047000085
:101A30002C00002010B500200349096808606420CC
:101A4000FFF77AFF10BD00002C00002008B500BF92
:101A500006E05920214908601620086088200860A7
:101A60001E4800680128F4D100BFFFF74BF800BF03
:101A700000201A49086000BFE1204002FFF7A4F9E6
:101A8000E1204002FFF7AEF9002003460322E121E6
:101A9000490200901248FFF71DFA00200346032276
:101AA000E121490200900F48FFF714FAFFF7A8F967
:101AB0007D20C000FFF764F91221042000F06CF8CB
:101AC0000AE009A1064800F0F5F8FF2200210846C7
:101AD00000F0BAF800F074F8F3E7000000010050DD
:101AE0000000054000001540736574436F6C6F7211
:101AF000416C6C3A0D0A0000F8B504460D46F02022
:101B0000204006112107090F01208840C7B2330089
:101B1000FFF7A7FA05040A11181F26002A463946BE
:101B20001148FEF7BDFF1CE02A4639460E484030FA
:101B3000FEF7B6FF15E02A4639460B488030FEF71F
:101B4000AFFF0EE02A4639460748C030FEF7A8FF2F
:101B500007E02A4639460448C030FEF7A1FF00E0FE
:101B600000BF00BFF8BD00000040005010B50024C9
:101B700004E0002006490855601CC4B205480078FE
:101B800041004018A042F4DC00F01AF810BD00003B
:101B9000300100202800002070B505460C460121C8
:101BA0002046FFF7A9FF284600F07EF82046FEF702
:101BB00099FF02490860FFF7D9FF70BD2C00002093
:101BC00070B5002500240B4800784100461872B615
:101BD00006E00948055D284600F010F8601CC4B214
:101BE0003046711E8EB20028F3D162B6FFF722FF95
:101BF00070BD0000280000203001002000B5024622
:101C000000230CE080201040002802D0FFF7DCFE0B
:101C100001E0FFF7ABFE5006020E581CC3B2082BC2
:101C2000F0DB00BD10B5C2690AE00B780360491C07
:101C300000BF83690124240723401B0F002BF8D029
:101C40000B78002BF1D110BDF0B505460E461746B6
:101C5000012407E03B4632462946204600F00AF8B8
:101C6000601CC4B2024800788442F3DD0120F0BD5C
:101C70002800002070B504460D46094800788442CB
:101C80000BDC601E46008019C1B2064842544E1C4F
:101C900085558E1C8355012070BD0020FCE7000097
:101CA0002800002030010020014908707047000022
:101CB000280000200FB410B5C2B0044646A84190D9
:101CC00001A8419A4599FFF7A3F901A92046FFF71A
:101CD000A9FF0020419042B010BC08BC04B01847D6
:101CE000001BB7000000000080F0FA02102700007F
:101CF0000000000000000000000000000080510112
:101D0000001BB7000000000000000000008051012F
:101D1000001BB7000000000000000000008051011F
:101D2000001BB7000000000000000000008051010F
:101D3000001BB700000000000000000000000000D1
:101D4000000000001027000000000000008051018A
:101D5000701D000000000020300000007E10000018
:101D6000A01D000030000020600500008E10000063
:101D700080F0FA023200000080F0FA020000000059
:101D80000000000000000000000000000000000053
:101D90000000000001000000000000000000000042
:04000005000000D522
:00000001FF
