:020000040000FA
:1000000020070020D5000000FB000000FD000000DC
:1000100000000000000000000000000000000000E0
:10002000000000000000000000000000FF000000D1
:1000300000000000000000000101000003010000BA
:100040000501000005010000050100000501000098
:10005000050100007D0A0000050100000501000007
:10006000F50D00000501000005010000050100007C
:10007000610E0000850E0000050100000501000072
:100080000501000005010000110B00000501000042
:100090000501000005010000050100000501000048
:1000A0000501000005010000050100000501000038
:1000B0000501000005010000050100000501000028
:1000C0000348854600F0C4FA0048004701180000C4
:1000D000200700200C480D4901600D4901600D49C1
:1000E00001600D4A0D4911600D4A0E491160002151
:1000F00001600D4880470D480047FEE7FEE7FEE738
:10010000FEE7FEE7FEE70000000100505900000096
:10011000160000008800000024000050A55A0000CE
:10012000800300501F000000F50C0000C10000001B
:1001300030B50B46014600202022012409E00D467F
:10014000D5409D4205D31D469540491B2546954007
:1001500040191546521E002DF1DC30BD70B500244B
:100160002546002801DA01244042002901DA012550
:100170004942FFF7DDFFAC4200D04042002C00D0E6
:10018000494270BD03460B439B0703D009E008C9F1
:10019000121F08C0042AFAD203E00B780370401C37
:1001A000491C521EF9D27047024670B54A40D30F1F
:1001B000DB0740002DD04A002AD0010E140E0002A9
:1001C00012020919400A520A8418E50104465443F0
:1001D000000A120A2E045043A4194219200CC543E8
:1001E000AA18120C0125AD03521C521912047F39B2
:1001F000240400D0521C104301D44000491EC2B256
:100200000C06C0092018401C4008802A02D003E0D8
:10021000002070BD40084000002900DA002018438B
:1002200070BD0000F0B51FB488B00B990998002488
:1002300048400999C00F490049080991C0070B9926
:100240000090490049080B9109990898A64608436F
:100250001CD00B990A98084318D009980124400033
:10026000420D4800410D099824050003000B20436E
:1002700009900B980003000B20430B9050181C4969
:100280004018002201901446104605E00020014667
:100290000DB0F0BD032801DA034600E003239C46BD
:1002A000C11A0AAE0AE05F0008ADED5B4F00F75BD4
:1002B0007D430027AA187C41491C5B1E6145F2DD85
:1002C000410004AB5A522104120C0A43240C401C76
:1002D0000828DFDB01980290009970460191009098
:1002E000059B049A0799069800F05FF9D0E7000093
:1002F0000DFCFFFFF0B50C465C4085B0E40FE40751
:1003000003944C00002664085900944649080246AC
:100310000296224321D062460A431ED06200570D46
:100320004A000E032303550D012402462C492405DF
:10033000781B1B0B360B4018234326436146009065
:100340001C46501AB44103D30098401C009002E0B0
:10035000921800985B41002803DA0020014605B09E
:10036000F0BD0020012109050746864611E06446DC
:100370001D46141BB54106D36546521BB341744656
:1003800007430C43A646CD07400849082843921866
:100390005B4105460D43EAD11046184313D0604631
:1003A000194650407140084306D06046101AB341C8
:1003B00006D20122002306E000220123DB0702E02F
:1003C0000122D2435310009874460105381C614144
:1003D000029C039D0019694100F0DAF8BFE70000B4
:1003E000FD030000C217C10F504010B54018CA07E6
:1003F0009623002100F093F810BD00000EB5C2173F
:10040000C10F5040CA0740180021054B02930192CA
:1004100000910A460B4600F0C8F803B000BD00008A
:1004200033040000C20F410040020123400ADB05F3
:10043000D207090EC0187F2901DA002070479629DB
:1004400003DC9623591AC84001E096398840002AF7
:10045000F4D040427047000070B5CD0F4A00090348
:100460000123090B1B0519430B4BED070024520D0B
:100470009A4201DA002070BD074B34339A4203DC04
:100480009A1A00F033F802E00449511888402C43CE
:10049000F1D0404270BD0000FF030000CDFBFFFF24
:1004A000CB0FDB07490010B5490802460A4307D0C5
:1004B0000A0D07240903E401090B121B002A01DCC1
:1004C000002010BDC900440F0C43C100E018D20544
:1004D000801800F01CF810BD0122D207002800DBB4
:1004E000101A002900DB511A8842704710B5202AE3
:1004F00004DB0846203AD040002110BD0B46D34013
:10050000D0402024A21A91400843194610BD00296A
:1005100004DA401C490001D140084000704770B423
:100520000024050C05D11024000402D1002921D09B
:100530001124050E01D100020834050F01D100017C
:10054000241D850F01D18000A41C002801DB400080
:10055000641C002908D020252E1B0D46F540A14023
:1005600000D001212943084301061B1B000ADB1DA3
:1005700002D5002070BC7047DB05181880180029D0
:10058000F8DA401C4900F5D170BC400840007047C3
:1005900010B5002B08DA0024401C614192185B4121
:1005A0001A4301D14008400010BDF0B51FB482B01D
:1005B00005460C0003D0084600F0C4FD02E000F040
:1005C000C1FD2030024600902146284600F052F836
:1005D000049B059A04460F4618431143084314D060
:1005E000184610431BD0009840210A1A1846059956
:1005F000FFF77CFF05460E46009A0599049800F027
:1006000039F8084305D0012004E02046394607B0F8
:10061000F0BD0020C11705430E432C43374300991A
:100620000E986305401A7905E40A00220C43FD0A7E
:100630000A3002D500200146E9E701051019694199
:100640000C9C0D9D00196941FFF7A2FFDFE7000038
:10065000064C0125064E05E0E36807CC2B430C3C15
:1006600098471034B442F7D3FFF72EFD502A00000C
:10067000702A000010B5202A04DB0146203A914080
:10068000002010BD914020239C1A0346E3401943EB
:10069000904010BDC10F8900064A89188968C306B9
:1006A000DB0E01229A401143C20F9200014BD21877
:1006B0009160704700020050F3B583B00C46039878
:1006C000002809D13D48006A0121C90488433B49FB
:1006D00008623B48029008E03848006A0121C904DA
:1006E000084336490862374802903748844204D8A4
:1006F0004010844201D9002722E03448844205D8C2
:100700004010844202D90127640019E03048844235
:1007100005D84010844202D30327A40010E00398B8
:10072000002803D12B482549086202E02A482349C2
:100730000862042000F08EF900F0DAF805B0F0BD90
:1007400026492046FFF7F4FC064624490298FFF7A5
:10075000EFFC05460EE0E807C00F002807D1F007C0
:10076000C00F002803D1022D01D0022E00D102E0DB
:100770006D087608EFE700BFB803A91E49020843D9
:10078000B11E084301900D48006A010C090401984C
:1007900001430A480162006A0521090488430749A8
:1007A0000862042000F056F97A1C6A431146029A46
:1007B00072431046FFF7BCFCC0E700000002005087
:1007C000001BB7000080510100C2EB0B00E1F505F2
:1007D00080F0FA022EC200006FD6000040420F00E7
:1007E000024909680143014A116070470002005044
:1007F000FEB5002002901AA0006800901948046A13
:1008000000132040002801D00020FEBD0120C004BC
:100810002040002801D0144D00E0144D0120400478
:100820002040002801D02846EFE703208003204025
:10083000800B69460A5C0192E005C00D861C1F20F2
:1008400040022040400A871C019A7A431146AA08B8
:1008500072431046FFF76CFC800002900298D4E7C8
:10086000010202040002005000805101001BB70089
:10087000FEB5002002901AA0006800901948046A92
:1008800000132040002801D00020FEBD0120C0043C
:100890002040002801D0144D00E0144D01204004F8
:1008A0002040002801D02846EFE7032080032040A5
:1008B000800B69460A5C0192E005C00D861C1F2072
:1008C00040022040400A871C019A7A431146AA0838
:1008D00072431046FFF72CFC800002900298D4E788
:1008E000010202040002005000805101001BB70009
:1008F000FEB5002002901AA0006800901948046A12
:1009000000132040002801D00020FEBD0120C004BB
:100910002040002801D0144D00E0144D0120400477
:100920002040002801D02846EFE703208003204024
:10093000800B69460A5C0192E005C00D861C1F20F1
:1009400040022040400A871C019A7A431146AA08B7
:1009500072431046FFF7ECFB800002900298D4E748
:10096000010202040002005000805101001BB70088
:1009700010B504461048844201D9044603E00F48EC
:10098000844200D204460E480068C007C00F002809
:1009900005D021460020FFF78FFE044605E02146E2
:1009A0000120C004FFF788FE04460021022000F069
:1009B00009F8204610BD000080F0FA0240787D0161
:1009C0000002005070B504460D4608480069C00892
:1009D000C0002043054908610846806900090001FC
:1009E0002843886100F054F970BD000000020050F7
:1009F000F0B50B46002100240025C600360F002E5E
:100A00000FD04600B60FB600114FF4192168C6008A
:100A1000370FC601F60EB7400E46BE431E433146A1
:100A200021608603360E002E10D00603B60FB600E6
:100A3000074F0837F51929688603360EF6438705F0
:100A4000FF0EBE400E40164331462960F0BD000047
:100A5000100200500146074A05E01046521E0028C9
:100A600001DC002070470448C06808408842F4D187
:100A70000120F7E790D00300000200500D48006A03
:100A800008210840002803D008200A4908620FE026
:100A90000848006A0749086206484030006A05496C
:100AA0004031086203488030006A024980310862A0
:100AB000704700008040005010B58469130E8B40D1
:100AC0001C438461C3691402240A8C402343C3611C
:100AD00010BD70B5034600200FE0012484400C4097
:100AE000002C09D01C6846000325B540AC434600E5
:100AF0001546B5402C431C60401C0828EDD370BD42
:100B0000416901221143416170470146C86870473D
:100B100010B50D48FFF7F9FF04460B484069C007C0
:100B2000C00F012148404840002803D00648FFF785
:100B3000E7FF07E005480068002803D02046034986
:100B40000968884710BD000000000240D000002066
:100B5000C206D20E01219140014A11607047000087
:100B600000E100E030B50146F0240C4022110B07F3
:100B70001B0F5401024D64199D00601930BD000027
:100B80000042005010B50420FFF72AFE1020FFF7A6
:100B900061FF00210720FFF715FF0120FFF720FE6E
:100BA0000120FFF757FF1E48FFF7E2FE1D48FFF741
:100BB00071FD1C48401CFFF76DFD1B48FFF76AFDE7
:100BC000002211461748FFF713FF0022114615486F
:100BD000401CFFF70DFF002211461348FFF708FFE6
:100BE00005200007C06B1149084005210907C863AB
:100BF0000846C06B0321084305210907C86308465E
:100C0000006B0B4908400521090708630846006B83
:100C10000649C943084305210907086310BD0000C0
:100C200080F0FA02103D80270200802EFCFCFFFFBE
:100C3000FCFCFFFC010E05221207891889680122BD
:100C400082401143020E05231B07D2189160010E4A
:100C50001A4689188A68012181408A43010EC91801
:100C60008A60704700B50346F02001F0D5FD0748C3
:100C7000007801F0D1FD1F2001F0CEFD184601F0F3
:100C8000CBFDF72001F0C8FD00BD000050000020A2
:100C900070B51248006945076D0FFFF7A9FD1049AF
:100CA0000860022D03D0A8000E490C5801E00C4842
:100CB00004680A4880690007000F461C3146204638
:100CC000FFF736FA084908600849074800684A10E3
:100CD0008018FFF72DFA0649086070BD0002005029
:100CE00008000020782800000000002040420F008B
:100CF000040000207047000030B589B0054620226E
:100D0000194901A8FFF73EFA1848854206D118484C
:100D10004069072109020840040A1AE013482030FC
:100D2000854206D112484069072109030840040B97
:100D30000FE01048854206D10D484069072109049B
:100D40000840040C05E00A484069072109050840ED
:100D5000040D022C03D10848006809B030BDA00082
:100D600001A90858F9E70000302A000000000140FE
:100D7000000200500000114000000020FEB50546B2
:100D80000F4616462846FFF7B7FF0446002001909D
:100D900000906008B04202D2022001901BE00120C6
:100DA0008006844203D307200090E4080EE001206F
:100DB0004006844203D303200090A40806E00120EB
:100DC0000006844202D30120009064083146204688
:100DD000FFF7AEF9019000983843286001986860E9
:100DE000009A521C0198504301462046FFF7A0F993
:100DF000FEBD000000BF08488068C007C00F002883
:100E000009D000BF01200449886000BF0348006882
:100E1000401C024908607047000001401800002093
:100E200010B5044622460121C9060C48FFF7A6FF6B
:100E300000BF0A48006801214907084307490860C4
:100E400000BF00BF084600688903084303490860E3
:100E500000BF0820FFF77CFE10BD0000000001402D
:100E600010B500F0F1F810BD10B504460348FFF7C7
:100E7000E1FE2146024800F02FF810BD10000004EA
:100E80000000054010B500F021F910BD10B5044672
:100E90000348FFF7CFFE2146024800F01DF810BDC1
:100EA000110000040000154010B5094840681121E8
:100EB0000843074948600C20FFF74AFE0548406890
:100EC00011210843034948600D20FFF741FE10BD82
:100ED0000000054000001540F0B587B004460D46FF
:100EE000274801460EC9C06803AE0EC60690002012
:100EF000029024484069032109060840060E214853
:100F000080690F2109020840070A0020206303209E
:100F1000E060A0681C490840A060012E04D1FFF7E2
:100F2000A7FCB10003AA5050002D26D0B10003AA9F
:100F30005058791CFFF7FCF86908401829460190C1
:100F4000FFF7F6F8801E02901049029888420FD9E8
:100F5000B10003AA5058791CFFF7EAF8E9004018DD
:100F600029460190FFF7E4F80009801E606204E062
:100F70000321090702980843606207B0F0BD000032
:100F8000002A0000000200500FFFF0FFFFFF0000EA
:100F9000FFB587B004460D461746284801460EC9DE
:100FA000C06802AE0EC6059000200190244840693A
:100FB000032109060840060E214880690F21090215
:100FC0000840000A0690012E04D1FFF751FCB10041
:100FD00002AA5050002D28D0B10002AA50580699FC
:100FE000491CFFF7A5F86908401829460090FFF74B
:100FF0009FF8801E019013490198884210D9B100D2
:1010000002AA50580699491CFFF792F8E9004018C7
:1010100029460090FFF78CF80009801E606204E00A
:101020000321090701980843606238460A9908437A
:1010300010990843E0600BB0F0BD0000102A0000DA
:1010400000020050FFFF000070B5FF241B48C56977
:1010500080152840002830D029E018480068C4B224
:101060001748007800281AD0F72C05D10020144921
:10107000087000F0B1FD1AE01248134909684454A1
:1010800011480068401C10490860084600683F2865
:101090000DDD00200A4908700B49086007E0F02CBC
:1010A00005D101200649087000200749086003485F
:1010B000C069C007C00F0028CFD170BD0000054037
:1010C00030000020BC02002034000020FF20184A1D
:1010D000D169421C0A40002A29D022E0144A126831
:1010E000D0B2144A1268FF2A14DC134A134B1B684F
:1010F000D054124A1268FF2A01D1002202E00F4A9E
:101100001268521C0D4B1A600A4A1268521C094B95
:101110001A6006E00022074B1A60084B1A60084B61
:101120001A60034AD269D207D20F002AD6D170477B
:1011300000001540380000207C0100204400002001
:10114000400000202021020C01D010211046020A8C
:1011500001D010460839020901D01046091F820843
:1011600001D01046891E420801D0881E7047081A17
:10117000704730B47446641E2578641CAB4204D3B7
:10118000635D5B00E31830BC18471D46F8E702E0DA
:1011900008C8121F08C1002AFAD170477047002002
:1011A00001E001C1121F002AFBD1704710B50024D5
:1011B000E443142000F004F8044620B210BD0000FF
:1011C00000B50246104600F0F5FA002801D1401E95
:1011D00000BD474840690C2188434549486108469D
:1011E0008069886108468068C9040843404988606E
:1011F000012040490862104610380300FFF7B9FF8C
:10120000060454142434445405200007406B012183
:1012100008430521090748633648406A000A00026E
:10122000401C3449486240E005200007406B04211F
:1012300008430521090748632E48406A000A000256
:10124000001D2C49486230E005200007406B082152
:1012500008430521090748632648406A000A00023E
:1012600008302449486220E005200007406B102127
:1012700008430521090748631E48406A000A000226
:1012800010301C49486210E005200007406B202107
:1012900008430521090748631648406A000A00020E
:1012A00020301449486200E000BF00BF012011490E
:1012B00008630846006A0121C90208430D49086213
:1012C00000BF0C48006BC007C00F0028F9D00948C8
:1012D000006A0121C90288430649086201200863A7
:1012E000104610388000401800680005000D6FE7B8
:1012F0000002005000000E4000B5034613488078FD
:10130000401C13490870F02001F086FA104800785C
:1013100001F082FA102001F07FFA0E48007801F007
:101320007BFAF72001F078FAF02001F095FAFF201F
:1013300001F092FA102001F08FFA0548007801F0D0
:101340008BFAF72001F088FA00BD0000BC020020F3
:10135000500000205100002010B504460448807859
:101360000449086004480178482001F025F810BDC0
:10137000BC020020580000208E000020FF2109023E
:10138000884201DD084603E00249884200DA084647
:10139000704700000001FFFF10B509480078702871
:1013A0000DD108490020085E074900228A5E90425C
:1013B00005D000F0CDFA0446204601F0CFF910BD6B
:1013C00051000020D8000020D600002010B50146B2
:1013D000F020084002110B071B0F5001024C0019AE
:1013E0009C00005910BD00000042005030B5054679
:1013F0000C462846FFF7B6FB046030BD00200EE027
:101400000B49095C0B4A116000BF0B498969012235
:1014100012071140090F0029F7D0411CC8B2074933
:1014200009688842ECDB0021044A11607047000023
:10143000BC020020000015400000054034000020E0
:10144000FF201B4A126891B22CE0194A126891B22F
:10145000184A194B1B68D05CF02802D10122174BA7
:101460001A70174A106000BF154A926901231B07C2
:101470001A40120F002AF7D00F4A12687F2A01D1B2
:10148000002202E00C4A1268521C0B4B1A600D4AF3
:101490001268521E0B4B1A60F72803D10022074B2B
:1014A0001A7003E0044A12688A42CED100BF704726
:1014B0004C000020FC0000204800002032000020EA
:1014C000000005403C000020FF201B4A126891B23A
:1014D0002CE0194A126891B2184A194B1B68D05C6B
:1014E000F02802D10122174B1A70174A106000BF72
:1014F000154A926901231B071A40120F002AF7D0E0
:101500000F4A1268FF2A01D1002202E00C4A126839
:10151000521C0B4B1A600D4A1268521E0B4B1A607C
:10152000F72803D10022074B1A7003E0044A12681F
:101530008A42CED100BF7047440000207C010020C9
:10154000400000203300002000000540380000204B
:1015500010B504480078702803D1FFF727FE024930
:10156000086010BD510000209400002010B5044612
:1015700005488078054908600548017805480078E5
:1015800000F030FF10BD0000BC0200205800002019
:1015900090000020920000207047000010B5044623
:1015A000502C74D014DC102C43D008DC002C6BD0F1
:1015B000012C2CD00E2C68D00F2C67D1DEE0112C22
:1015C00029D0202C1BD0302C7DD0412CF5D1C3E06C
:1015D0002007000F0028F0D12011801F0300FFF723
:1015E000C8FD0A3F20C7120A9BCB379706CB2220A3
:1015F00069490870CEE02D2067490870CAE0432091
:1016000065490870C6E0462063490870C2E048207A
:1016100061490870BEE000F045FE70205E49087028
:10162000B8E00021232000F09DFA42205A490870BA
:10163000B0E0012202215948FFF73EFA02200121C1
:101640008140574A116000BF442053490870A1E00F
:101650000321142000F086FA40204F49087099E0D9
:101660007D21C900232000F01DFB7D21C90024201D
:1016700000F018FB7D21C900252000F013FB21207C
:101680004549087086E002E01EE076E074E0012142
:10169000232000F067FA0121242000F063FA0121E1
:1016A000252000F05FFA0121322000F05BFA0121D1
:1016B000152000F057FA0121142000F053FA2420DD
:1016C0003549087066E04BE00121142000F04AFA29
:1016D0000121052000F046FA0121062000F042FA1F
:1016E0000121252000F03EFA0121262000F03AFADF
:1016F0000121152000F036FA0121232000F032FAF2
:101700000121242000F02EFA28202349087041E00E
:101710004520214908703DE00121062000F022FA11
:1017200001210620FFF762FE7D21C900232000F081
:10173000B9FA7D21C900242000F0B4FA7D21C90046
:10174000252000F0AFFA7D21C900262000F0AAFA7A
:101750002A20114908701DE02B200F49087019E05C
:101760000121232000F0FEF92F200B49087011E021
:101770004120094908700DE000BF00BF0020094961
:101780000860094908600949086009490860024978
:10179000087000BF00BF10BD51000020C0400050C5
:1017A00000E100E04000002044000020480000204C
:1017B0004C0000200146102907D0122905D013291A
:1017C00003D0142901D0152901D101207047002030
:1017D000FCE770477047000010B504460448807865
:1017E0000449086004480168462000F0CDFD10BDA2
:1017F000BC02002058000020640000207047000058
:101800001CB50020019000BF06E059202749086060
:101810001620086088200860244800680128F4D158
:1018200000BFFFF7AFF900BF00202049086000BFEC
:10183000E1204002FFF718FBE1204002FFF726FB02
:10184000002003460322E121490200901848FFF7D7
:101850009FFB002003460322E12149020090154826
:10186000FFF796FBFFF720FB1348FFF7D9FA1CE0C0
:10187000FFF72AFEFFF7E4FDFFF76AFE00F046F8E7
:101880000E490860084600680D490968401A0D496C
:101890000968884209D9094800680949086000F0C8
:1018A00087FEFFF779FD00F0B9FDE1E70001005088
:1018B0000000054000001540A08601000C0000203B
:1018C0001000002014000020F8B506460C4617460C
:1018D0001D46321B069B5B1B5A431046391BFEF705
:1018E0003DFC4019F8BD000010B50446044880785E
:1018F0000449086004480168452000F045FD10BD1A
:10190000BC020020580000207400002010B56421A3
:1019100002480068FEF70CFC10BD00001800002013
:101920007047704770477047704770470121C90280
:10193000884202DD4900411A08B20449884203DAAC
:1019400001210903411808B27047000000F8FFFFA9
:10195000FEB5FFF72BFC074670490988791A08B2D3
:10196000FFF7E4FF6E4908806C4807806D4900204E
:10197000085E6D490880FF202D306C4908806C4856
:101980006C4908800A206C4908806C490020085E78
:101990006B49088069490020085E644900228A5E1C
:1019A000904203DA0020085E644908806349002001
:1019B000085E604900228A5E904203DD0020085ED6
:1019C0005E4908805D480088C01B00B25D49088000
:1019D00008460021415E002913DD534A0021515E73
:1019E0004F4A0023D35EC81AFEF708FD0546564A43
:1019F000564BFEF717FC01910090FEF751FD04468F
:101A000013E0494900228A5E5142454A0023D35ED1
:101A1000C81AFEF7F3FC05464B4A4C4BFEF702FC96
:101A200001910090FEF73CFD04462046FEF7FAFCCB
:101A300000B24749088043480021415E002903DD88
:101A400001460020085E03E03E480021415E484216
:101A5000394900228A5E9100884202DC00203C491C
:101A600008803C483C4908608720C0053B49086025
:101A700000203B4908603349085E2F4900228A5EF6
:101A8000904208DC2F490020085E2B4900228A5E24
:101A90005142884230DA2B490020085EFEF7A2FC52
:101AA00006462D4801683046FEF77EFB0546FEF7E8
:101AB000B9FC2B49096840182949086008460068A4
:101AC000FFF75CFC264908600968174A0023D35ECB
:101AD000594308461621FEF741FB214908601F487B
:101AE0000068FEF79FFC1A4900228A5E50431C4999
:101AF000096840181A49086019480068FFF73EFC59
:101B0000174908600868C117090E09180912144A14
:101B100011601046008800B2FEBD0000D400002015
:101B2000EA000020DC000020EC000020E60000209D
:101B3000740E0000E8000020E0000020D800002023
:101B4000DA000020E20000202FBAE8A28B2E274006
:101B5000E400002000009643F8000020F40000207C
:101B6000F0000020F8B504460D46F0202040061194
:101B70002107090F01208840C7B23300FFF7F9FAA7
:101B800005040A11181F26002A4639461148FEF797
:101B9000A0FF1CE02A4639460E484030FEF799FF68
:101BA00015E02A4639460B488030FEF792FF0EE0DA
:101BB0002A4639460748C030FEF78BFF07E02A4621
:101BC00039460448C030FEF784FF00E000BF00BF84
:101BD000F8BD00000040005010B500202C490870EE
:101BE0002C480078FF2805D02A4800782A4909782F
:101BF000884240D127480078FF280BD125484078FB
:101C0000102807D0F02000F027FEFFF7F7FBF720A1
:101C100000F022FE00242BE00C2060431F49085CEA
:101C20001C494978884221D11D48007800280ED0EF
:101C3000184840781A490978884208D015484078F1
:101C40000011012803D01220FFF70CF810BD0C2062
:101C50006043124940188068002806D00C20604379
:101C60000A46801881680020884703E0601CC4B2DF
:101C70001E2CD1D307E0F02000F0EEFDFFF7BEFBF5
:101C8000F72000F0E9FD01200149087000BFDDE701
:101C900031000020BC0200205000002098280000E5
:101CA0005100002070B505460C46284620388000BB
:101CB000E3490C500121284620388000E14A1150A8
:101CC0002146E148FEF74AFA044628462038030038
:101CD000FFF74FFA080535679FD7FDFCFBFADB4895
:101CE00040690020D949486108468068C902084314
:101CF000D6498860D648806808210843D44988605E
:101D000008460068000A00020B3008600846406878
:101D1000C008C000001D4860CD484030C06B0121A4
:101D20000843CB494031C86305200007806B891503
:101D30000843052109078863C548C4607DE1C3489D
:101D400040690020C149486108468068C9020843CB
:101D5000BE498860BE4880680121C9020843BC4969
:101D6000886008460068000A00020B3008600846D8
:101D70004068702188434030B5494860B4484030DD
:101D8000C06B02210843B2494031C86305200007F7
:101D9000806B49150843052109078863AC488461B5
:101DA0004BE1AA4840690020A8494861084680687C
:101DB00009030843A5498860A5488068890208434B
:101DC000A349886008460068FF21090288430B2167
:101DD000090240189E490860084640680721090228
:101DE0008843012189024018994948609848403049
:101DF000C06B0421084396494031C86305200007A1
:101E0000806B0915084305210907886390484462DF
:101E100013E18E48406900208C494861084680687B
:101E20000903084389498860894880688904084310
:101E30008749886008460068FF21090288430B2112
:101E400009024018824908600846406807210903D2
:101E500088430121890340187D4948607C4840300F
:101E6000C06B082108437A494031C8630520000748
:101E7000806BC9140843052109078863744804630B
:101E8000DBE07248C06900207049C861084680687C
:101E9000490308436D4988606E48806808210843FB
:101EA0006C49886008460068000A00020B30086030
:101EB00008464068C008C000001D486065484030C2
:101EC000C06B0121084303E0B6E07CE042E00EE095
:101ED00060494031C86305200007806B0121090378
:101EE00008430521090788635A48C460A5E057489C
:101EF000C06900205549C861084680684903084305
:101F000052498860534880680121C90208435149F9
:101F1000886008460068000A00020B300860084626
:101F200040687021884340304A4948604948403001
:101F3000C06B0221084347494031C86305200007B0
:101F4000806B012149030843052109078863414843
:101F5000846172E03D48C06900203C49C861084680
:101F6000806889030843394988603A488068890253
:101F700008433849886008460068FF210902884301
:101F80000B210902401833490860084640680721C0
:101F9000090288430121890240182E4948602D48D2
:101FA0004030C06B042108432A494031C8630520F2
:101FB0000007806B01218903084305210907886315
:101FC0002448446239E02148C06900201F49C861A3
:101FD00008468068890308431C4988601D4880685A
:101FE000890408431B49886008460068FF210902EC
:101FF00088430B21090240181649086008464068CA
:1020000007210903884301218903401811494860C9
:1020100010484030C06B082108430E494031C86366
:1020200005200007806B0121C9030843052109072A
:1020300088630848046300E000BF00BF70BD000073
:10204000B0000020FC02002040420F0000020050BF
:102050000000044000001440F8B507460021104875
:1020600000F008F9044602210D4800F003F9054686
:1020700004210B4800F0FEF80646FF23002221460B
:10208000252000F00FF8FF2300222946242000F02D
:1020900009F8FF2300223146232000F003F8F8BDA1
:1020A000BE020020FFB583B00D4616461F46002035
:1020B00002902C460398203880001049085802905E
:1020C0000F480299FEF74AF80290B44201DA30460E
:1020D00004E0BC4201DD384600E020460446029898
:1020E00000233A46314600902046FFF7EDFB0446B8
:1020F0002146039800F006F807B0F0BDB0000020BC
:1021000040420F0000B50246203A1300FFF731F8B5
:1021100008050D161F283039424B244A1161926878
:1021200001231A43214B9A603EE0204AD161926814
:10213000FF2301331A431D4B9A6035E01B4A91621D
:10214000926801231B041A43184B9A602CE0174A2B
:102150005163926801231B061A43144B9A6023E0D3
:10216000134A1161926801231A43114B9A601BE0D4
:102170000F4AD1619268FF2301331A430C4B9A60D6
:1021800012E00B4A9162926801231B041A43084B28
:102190009A6009E0064A5163926801231B061A43BC
:1021A000034B9A6000E000BF00BF00BD0000044088
:1021B0000000144030B50346585C4006400E0E4DFA
:1021C0002870481C185CC007040E2846007820437D
:1021D0002870481C185C40106870002A07D1881CC1
:1021E000185C8007040E2846407820436870024D32
:1021F0000020285E30BD0000AC00002070B506460F
:102200000B4884782046FEF7DBFF0546F02000F0FF
:1022100003FB0848007800F0FFFA1E2000F0FCFAEB
:102220000121284600F084F8F72000F0F5FA70BD8F
:10223000BC0200205000002070B506460B48847890
:102240002046FFF7C3F8C5B2F02000F0E5FA0848D1
:10225000007800F0E1FA1D2000F0DEFA284600F0D8
:10226000DBFAF72000F0D8FA70BD0000BC020020B5
:102270005000002010B50246505C4006400E064C4F
:102280002070481C105CC007030E204600781843DD
:1022900020702046007810BDAE00002070477047C7
:1022A0007047000010B501212420FFF75BFC0121DD
:1022B0002620FFF757FC01212520FFF753FC0121C1
:1022C0000620FFF74FFC00212420FFF78FF80121A3
:1022D0002620FFF78BF800212520FFF787F8012142
:1022E0000620FFF783F8FF21F5312220FFF7DAFC03
:1022F000FF21F5312320FFF7D5FCFEF757FF0749F3
:1023000008800020085E0649088004490020085E15
:102310000449088016200449088010BDD60000201A
:10232000D4000020D8000020DC000020704700000E
:1023300018B503460C460020009018B211490880D9
:10234000084600784006400E69460870087800F09C
:1023500063FA0C48407840000A490978C9110843DB
:102360004006400E69464870487800F055FA002C47
:1023700007D104484078801169468870887800F059
:102380004BFA18BDAC00002030B505460C46F020D5
:1023900000F042FA0748007800F03EFA284600F0C4
:1023A0003BFA01212046FFF7C3FFF72000F034FA83
:1023B00030BD00005000002010B504460B46F02050
:1023C00000F02AFA0648007800F026FA204600F0CD
:1023D00023FA184600F020FAF72000F01DFA10BD8D
:1023E0005000002030B505460C46F02000F014FAED
:1023F0000848007800F010FA442000F00DFA284652
:1024000000F0BCF8204600F0B9F8F72000F004FA1C
:1024100030BD0000500000207047000010B541485A
:10242000006800287DD04048007845284CD007DC63
:1024300040380300FEF79DFE050D24252647730056
:10244000462842D0472841D0482840D0702866D13D
:102450003EE034480068012805D13448006834491A
:102460000968884203D12F480068022807D1304804
:1024700000682E4908602E48006800F07DF84FE0A3
:1024800000BF00BF2748006801280BD12948006819
:1024900029490968884209D126484068264949687F
:1024A000884203D11F48006802280BD122480068E7
:1024B000204908602048406848601F4A51681068F9
:1024C000FFF7AAFF2CE000BF00BF00BF00BF27E05E
:1024D00014480068012813D1184800681849096891
:1024E000401A002805DD1548006815490968401A9A
:1024F00004E01348006811490968401A052803DC04
:1025000008480068022808D10D4800680B49086097
:102510000B48006800B200F015F801E001E000BFD0
:1025200000BF10BD580000205100002060000020B6
:102530005C000020840000207C0000209800002027
:102540009400002010B50446F02000F065F9094819
:10255000007800F061F9702000F05EF9222000F0B0
:102560005BF900212046FFF7E3FEF72000F054F965
:1025700010BD0000500000207047000008B5034661
:10258000002000900948037000784006400E69461C
:102590000870087800F040F904480078C0116946D6
:1025A0004870487800F038F908BD0000AE000020FF
:1025B00010B5112404480078A04204D002480470E9
:1025C0002046FEF7EBFF10BD1C000020704710B541
:1025D0000446FF23002221462220FFF763FDFF234C
:1025E000002211462320FFF75DFD10BDF8B5074618
:1025F00035488678222E51D00CDC122E30D004DCE7
:10260000102E10D0112E58D10EE0202E44D0212EA5
:1026100053D142E0232E4CD0252E4BD0262E4AD02B
:10262000272E4AD148E04CE0002201212648801C98
:10263000FFF7C0FD054625480068052807DD002294
:1026400004212148801CFFF7B5FD044600E0FF246B
:102650002146284600F05CF80F20FEF703FB30E02F
:10266000002201211848801CFFF7A4FD05461748E9
:102670000068052807DD002204211348801CFFF7AD
:1026800099FD044600E0FF242146284600F032F878
:102690000F20FEF7E7FA14E013E012E00A48C078D2
:1026A0000B490860FEF782FD05462846FFF74AFF02
:1026B00007E000BF00BF00BF03E01120FEF7D2FA21
:1026C00000BF00BFF8BD0000BC02002034000020A5
:1026D0005800002010B50446FF2300221146222096
:1026E000FFF7E0FCFF23002221462320FFF7DAFC5E
:1026F00010BD000070B504460D460449098809194B
:1027000008B2294600F004F870BD0000D600002091
:10271000F8B504460D460F48048016216943084663
:10272000FF21FDF71BFD0746FDF75CFE0646002175
:102730003046FDF7D1FE01D2304603E0304601219C
:10274000C90748400746FDF76DFE00B20249088000
:10275000F8BD0000D8000020DC000020F0B585B0F6
:1027600007463C46FEF722FD1D4908800020085E12
:102770001C49884204DC1A480021415E642914DAAD
:1027800019490020085EFDF739FE05460022174B67
:10279000FDF748FD0022164B01910090FDF7AAFDC0
:1027A00003910290FDF758FE04B2002C05D001DD24
:1027B000204600E060421E2802DA00F01BF80DE01F
:1027C000002C03DDE0B2FFF785FF07E0002C01DD00
:1027D000214600E06142C8B2FFF7F9FE05B0F0BD46
:1027E000D60000203C0F0000DC00002000E06F401D
:1027F0000000364010B5FF23002219462220FFF7C3
:1028000051FCFF23002219462320FFF74BFC10BD8B
:1028100070477047704770470C490968802913DA80
:102820000B490C4A126888540A4909687F2901D16A
:10283000002102E007490968491C064A1160034962
:102840000968491C014A1160704700003C000020E3
:10285000FC0000204C0000200549086000BF04492E
:102860008969012212071140090F0029F7D070472A
:102870000000154070477047001BB70000000000C3
:1028800080F0FA02102700000000000000000000A5
:102890000000000000805101100000000000000056
:1028A000F9120000110000000000000011280000D3
:1028B000180000000000000075280000190000004A
:1028C00000000000172800001A00000000000000AF
:1028D0009F2200001B000000000000009D2200005D
:1028E0001C00000000000000CD2500001D000000BD
:1028F00000000000392200001E000000000000005F
:10290000FD2100002100000000000000592000000F
:1029100022000000000000007728000024000000D2
:102920000000000021190000280000000000000045
:102930002D23000029000000000000009915000070
:102940002A00000000000000231900002B000000F6
:1029500000000000291900002C0000000000000009
:10296000251900002D0000000000000027190000BC
:102970002E00000000000000152800002F000000BD
:1029800000000000D517000040000000000000001B
:102990001328000041000000000000002B19000077
:1029A0004200000000000000FD170000430000008E
:1029B00000000000D31700004400000000000000E9
:1029C0006D1500004500000000000000E91800003F
:1029D0004600000000000000D9170000470000007A
:1029E00000000000A12200004800000000000000DC
:1029F000591300007000000000000000ED250000E9
:102A0000001BB70000000000000000000080510122
:102A1000001BB70000000000000000000080510112
:102A2000001BB70000000000000000000080510102
:102A3000001BB700000000000000000000000000C4
:102A4000000000001027000000000000008051017D
:102A5000702A000000000020FC0000008E11000021
:102A60006C2B0000FC000020240600009E110000DA
:102A700080F0FA023200000080F0FA02000000004C
:102A8000000000000A00000000000000FF0000003D
:102A90000000000000000000000000000000000036
:102AA0000001000000000000000000000000000025
:102AB0000000000000000000000000000000000016
:102AC0000000000000000000000000000E010000F7
:102AD0000E010000000000000000000000000000E7
:102AE00000000000000000000000000000000000E6
:102AF00000000000000000000000000000000000D6
:102B000000000000000000000000000000000000C5
:102B100000000000000000000000000000000000B5
:102B2000F4010000F4010000F4010000F4010000D1
:102B3000F4010000F4010000F4010000F4010000C1
:102B40000000000000000000000000000000000085
:102B50000000000000000000000000000000000075
:0C2B600000000000000000000000000069
:04000005000000D522
:00000001FF
